:10032600E4F5081203AB1200038F08E50860F7FB3B
:100336003395E0FA750D037D027F0112036480E6B2
:10039700EF4E600F7D027CC7DCFEDDFCEF1F70F0C7
:0303A7001E80EDC8
:0103AA002230
:0603BF00C2A58F80D2A749
:0803C5007F027EEFDEFEDFFC8B
:0103CD00220D
:0A03DA00C2A61203BFC2A70203C5AA
:10034600CFCDCFCECCCE1201D07C007D0A1201D00B
:04035600ED2430FF63
:0A035A00D2A61203BFC2A70203C51A
:10038100AE07BE0104ED148006BE0209ED243F4410
:0603910080FF1203DA22D6
:1003AB007F381203DA7F0C1203DA7F061203DA7F2F
:0403BB00010203DA5E
:0A03E400AC03120381AF0402035AB8
:060303008B238A248925EA
:10030900120381E4FDAB23AA24A9258D82758300FC
:0C031900120191FF600612035A0D80E9EA
:0103250022B5
:0C02D0007F0AEA24FFFDE434FFFC7E00FE
:0802DC008E0E8F0F8C108D11A6
:1002E4007F017E00E4FBEBC39511E5106480F87494
:0E02F4008098500AAC0EAD0F1201BE0B80E8D0
:0103020022D8
:040364008A0B8B0C69
:10036800120381AA0DEAD39400400D1202D0AC0BFF
:08037800AD0C1203461A80EDE2
:01038000225A
:10022500120381C3EA64809480400B7F2B12035A2A
:100235008A178B18800E7F2D12035AC3E49BF5187D
:10024500E49AF517AA16EAD39400400D1202D0AC31
:0902550017AD181203461A80EDE2
:01025E00227D
:04025F008A1B8B1C4F
:10026300120381AA1DEAD3940040297F101202D2FF
:10027300AC1BAD1CCFCDCFCECCCE1201D0EF540FE3
:10028300FEC3940AEE5004243080022437FF120385
:040293005A1A80D1A2
:010297002244
:040298008A208B210C
:10029C00120381AA22EAD394004028EA24FFFDE449
:1002AC0034FFFC7F027E001202DCAC20AD21CFCDEE
:1002BC00CFCECCCE1201D0EF54012430FF12035A12
:0302CC001A80D2C3
:0102CF00220C
:10000300E4F5097590FFC2932097137F14FE120342
:10001300973097FD7F147E00120397750901209690
:10002300147F147E001203973096FD7F147E001216
:1000330003977509052095147F147E0012039730EA
:1000430095FD7F147E001203977509092094147F90
:10005300147E001203973094FD7F147E00120397E1
:1000630075090D7590FFC2922097147F147E0012BC
:1000730003973097FD7F147E0012039775090220C2
:1000830096147F147E001203973096FD7F147E0032
:100093001203977509062095147F147E00120397A7
:1000A3003095FD7F147E0012039775090A2094147E
:1000B3007F147E001203973094FD7F147E00120399
:1000C3009775090E7590FFC2912097147F147E00D7
:1000D3001203973097FD7F147E001203977509036F
:1000E3002096147F147E001203973096FD7F147EB2
:1000F300001203977509072095147F147E001203DD
:10010300973095FD7F147E0012039775090B209499
:10011300147F147E001203973094FD7F147E001227
:10012300039775090F7590FFC2902097147F147E73
:10013300001203973097FD7F147E00120397750911
:10014300042096147F147E001203973096FD7F14CB
:100153007E001203977509082095147F147E001200
:1001630003973095FD7F147E0012039775090C20C9
:1001730094147F147E001203973094FD7F147E0045
:0D018300120397750910AF09EF3395E0FEE8
:01019000224C
:030000000203CE2A
:0C03CE00787FE4F6D8FD75812502032637
:10019100BB010CE58229F582E5833AF583E0225023
:1001A10006E92582F8E622BBFE06E92582F8E2226D
:0D01B100E58229F582E5833AF583E4932287
:1001BE00EF8DF0A4A8F0CF8CF0A428CE8DF0A42E55
:0201CE00FE220F
:1001D000BC000BBE0029EF8DF084FFADF022E4CC13
:1001E000F875F008EF2FFFEE33FEEC33FCEE9DECDC
:1001F000984005FCEE9DFE0FD5F0E9E4CEFD22ED22
:10020000F8F5F0EE8420D21CFEADF075F008EF2F6B
:10021000FFED33FD4007985006D5F0F222C398FD5C
:050220000FD5F0EA22F9
:00000001FF
