:1000D10075A0FE1200FA12000EEF64014E70F705D2
:1000E1000BE50B7002050AC39402E50A6480948053
:0900F10040E4E4F50AF50B80DDA2
:03000B000200767A
:0B007600C0E0C0D075D000C000C00783
:10008100758A66758CFC0509E50970020508C3943B
:10009100F4E50864809481402E750800750900E537
:1000A1000B450A700DAFA07801EF08800123D8FD40
:1000B100F5A0E50B6401450A700DAFA07801EF08CA
:0700C100800103D8FDF5A04A
:0900C800D007D000D0D0D0E03206
:1000FA005389F0438901758A66758CFCC28DD28C4E
:07010A00D2A9D2AFC2B92255
:10011100EF4E600F7D027CC7DCFEDDFCEF1F70F04F
:030121001E80ED50
:0101240022B8
:10000E0020B1167F147E0012011130B1FD7F147ED7
:10001E00001201117E007F012220B0167F147E0097
:10002E0012011130B0FD7F147E001201117E007F8F
:10003E00022220B2167F147E0012011130B2FD7F13
:10004E00147E001201117E007F032220B3167F144E
:10005E007E0012011130B3FD7F147E001201117E5D
:08006E00007F0422E4FEFF22E2
:03000000020125D5
:0C012500787FE4F6D8FD75810D0200D152
:00000001FF
