:06027D0048656C6C6F0087
:1000970075080075093C1202267B417D017F01121C
:1000A70002737BFF7A02797D7D037F011201B2E53E
:1000B700091509AA0870021508FB750E037D097F4B
:0D00C700011201F37F0A7E0012023A80E26E
:06024E00C2A58F80D2A7BB
:080254007F027EEFDEFEDFFCFD
:01025C00227F
:0A026900C2A612024EC2A702025400
:1001D500CFCDCFCECCCE1200427C007D0A1200429C
:0401E500ED2430FFD6
:0A01E900D2A612024EC2A702025471
:10021000AE07BE0104ED148006BE0209ED243F4482
:0602200080FF12026922BA
:100226007F381202697F0C1202697F061202697F0B
:040236000102026956
:0A027300AC03120210AF040201E90F
:0601B2008B0A8A0B890C88
:1001B800120210E4FDAB0AAA0BA90C8D827583000C
:0C01C800120003FF60061201E90D80E93F
:0101D4002208
:0C017F007F0AEA24FFFDE434FFFC7E0050
:08018B008E0F8F108C118D12F4
:100193007F017E00E4FBEBC39512E5116480F874E4
:0E01A3008098500AAC0FAD101200300B80E8AF
:0101B100222B
:0401F3008A0C8B0DDA
:1001F700120210AA0EEAD39400400D12017FAC0C34
:08020700AD0D1201D51A80EDC6
:01020F0022CC
:1000D400120210C3EA64809480400B7F2B1201E962
:1000E4008A188B19800E7F2D1201E9C3E49BF51940
:1000F400E49AF518AA17EAD39400400D12017FACD4
:0901040018AD191201D51A80EDA5
:01010D0022CF
:04010E008A1C8B1D9F
:10011200120210AA1EEAD3940040297F1012018114
:10012200AC1CAD1DCFCDCFCECCCE120042EF540FC2
:10013200FEC3940AEE5004243080022437FF1201D9
:04014200E91A80D165
:010146002296
:040147008A218B225C
:10014B00120210AA23EAD394004028EA24FFFDE40C
:10015B0034FFFC7F027E0012018BAC21AD22CFCD90
:10016B00CFCECCCE120042EF54012430FF1201E966
:03017B001A80D215
:01017E00225E
:10023A00EF4E600F7DB47C49DCFEDDFCEF1F70F0F1
:03024A001E80ED26
:01024D00228E
:0300000002025D9C
:0C025D00787FE4F6D8FD7581230200973D
:10000300BB010CE58229F582E5833AF583E02250B2
:1000130006E92582F8E622BBFE06E92582F8E222FC
:0D002300E58229F582E5833AF583E4932216
:10003000EF8DF0A4A8F0CF8CF0A428CE8DF0A42EE4
:02004000FE229E
:10004200BC000BBE0029EF8DF084FFADF022E4CCA2
:10005200F875F008EF2FFFEE33FEEC33FCEE9DEC6B
:10006200984005FCEE9DFE0FD5F0E9E4CEFD22EDB1
:10007200F8F5F0EE8420D21CFEADF075F008EF2FFB
:10008200FFED33FD4007985006D5F0F222C398FDEC
:050092000FD5F0EA2289
:00000001FF
